S013000063616978615F64616775612E73726563AA
S11300000C9434000C9451000C9451000C94510045
S11300100C9451000C9451000C9451000C94510018
S11300200C9451000C9451000C9404020C94510053
S11300300C9451000C9451000C9451000C945100F8
S11300400C9451000C9451000C9490060C945100A3
S11300500C94C8060C9451000C9451000C9451005B
S11300600C9451000C94510011241FBECFEFD8E022
S1130070DEBFCDBF11E0A0E0B1E0E6EDF8E102C0E3
S113008005900D92A63AB107D9F722E0A6EAB1E0AD
S113009001C01D92AD33B207E1F70E946B040C94CA
S11300A0690C0C940000CF93882331F08091A60151
S11300B081608093A60105C08091A6018E7F809304
S11300C0A6018091A60182608093A6016091A60199
S11300D080E00E94BE0562E080E00E940A0600C043
S11300E064E080E00E942706882311F0C0E001C08C
S11300F0C0E165E080E00E942706811101C0C06272
S113010066E080E00E942706811101C0C06467E0B8
S113011080E00E942706811101C0C06862E080E08F
S11301200E940E0600C062E080E00E940A0600C041
S113013064E080E00E942706811101C0C16065E08F
S113014080E00E942706811101C0C26066E080E061
S11301500E942706811101C0C46067E080E00E940C
S11301602706811101C0C86062E080E00E940E068B
S11301708C2FCF91089580E00E9453008823DCF3F4
S113018000C080E00E945300089562E080E00E9475
S11301900A0600C062E080E00E940E060895CF9334
S11301A0C82F662331F08091A60181608093A60157
S11301B005C08091A6018E7F8093A6018091A6013F
S11301C08D7F8093A6016091A60180E00E94BE0508
S11301D08091A6018F778093A6018091A6018F7BE1
S11301E08093A6018091A6018F7D8093A6018091C2
S11301F0A6018F7E8093A601CC232CF48091A601C6
S113020080688093A601C6FF05C08091A601806422
S11302108093A601C5FF05C08091A60180628093EA
S1130220A601C4FF05C08091A60180618093A60148
S11302306091A60180E00E94BE050E94C5008091E5
S1130240A6018F778093A6018091A6018F7B80936E
S1130250A6018091A6018F7D8093A6018091A601BD
S11302608F7E8093A601C3FF05C08091A60180689C
S11302708093A601C2FF05C08091A601806480938B
S1130280A601C1FF05C08091A60180628093A601EA
S1130290C0FF05C08091A60180618093A601609192
S11302A0A60180E00E94BE050E94C5008091A601BF
S11302B080618093A6018091A60180628093A6014B
S11302C08091A60180648093A6018091A601806834
S11302D08093A6016091A60180E00E94BE05CF91A3
S11302E00895CF93C82F0E94BB0060E08C2F0E941A
S11302F0CF00CF91089581E00E9471010895CF93BA
S1130300C82F0E94BB00CA3049F4803410F480E442
S113031001C080E080580E94710113C0803129F42B
S113032060E080EC0E94CF0006C0803521F460E0DC
S113033080E80E94CF000E94BB0061E08C2F0E94E5
S1130340CF00CF910895CF93DF93FC0103C00E94A7
S11303507F01FE01EF01219680818111F8CFDF91A9
S1130360CF9108951F93CF93DF93182F0E94AD056B
S11303701092A6016091A60180E00E94BE0580EA69
S11303809FE00197F1F78091A60180628093A60116
S11303908091A60180618093A6016091A60180E00E
S11303A00E94BE050E94C50080EE94E00197F1F71B
S11303B00E94C500C0E1D0E0CE010197F1F70E9490
S11303C0C500CE010197F1F78091A6018F7E80933D
S11303D0A6016091A60180E00E94BE050E94C500AE
S11303E02197F1F788E20E94710188E00E9471016F
S11303F00E947B0186E00E947101812F0E9471019D
S1130400DF91CF911F9108951F920F920FB60F9213
S113041011240F931F932F933F934F935F936F93E5
S11304207F938F939F93AF93BF93EF93FF938091A9
S1130430810086FF0FC08091860090918700A0E024
S1130440B0E08093A7019093A801A093A901B09371
S1130450AA012FC06091860070918700CB01A0E0B3
S1130460B0E00091A7011091A8012091A901309159
S1130470AA01BC01CD01601B710B820B930B0E947E
S11304801F0820E034E244E759E40E94AB0820E06E
S113049034E244E75BE40E9475072AE939E949EB51
S11304A050E40E9475070E94E70770933C02609332
S11304B03B02E1E8F0E0908180E489278083FF91AA
S11304C0EF91BF91AF919F918F917F916F915F91C8
S11304D04F913F912F911F910F910F900FBE0F904D
S11304E01F901895EF92FF920F931F93CF93DF9372
S11304F0CDB7DEB7A0970FB6F894DEBF0FBECDBF61
S11305008C011A821982FE0133968EE1DF011D925D
S11305108A95E9F7A3E3B2E01696ED90FC9017975D
S11305201496ED91FC91159712964D915C91139749
S11305309701ADECBCEC0E943A0996958795969587
S11305408795969587959C01220F331F880F991FD5
S1130550880F991F880F991F820F931F9701281BDB
S1130560390BC9019F932F9397010E943A099695DD
S1130570879596958795969587959F938F939F01D9
S11305800E943A09969587959695879596958795AD
S11305909C01220F331F880F991F880F991F880F02
S11305A0991F820F931FDF01A81BB90BCD019F93E5
S11305B0AF939F01ADECBCEC0E943A0996958795E8
S11305C096958795969587959F938F939A010E9408
S11305D03A099695879596958795969587959C0162
S11305E0220F331F880F991F880F991F880F991F97
S11305F0820F931F9A01281B390BC9019F932F93D4
S11306009A010E943A0996958795969587959695AD
S113061087959F938F9381E091E09F938F93CE0171
S113062001967C019F938F930E946909B701C801C9
S11306300E9454090FB6F894DEBF0FBECDBF80915F
S1130640AB01882369F0D8010D900020E9F71197D8
S113065085E0EEE1F1E001900D928A95E1F70CC09E
S1130660D8010D900020E9F7119785E0E3E2F1E06D
S113067001900D928A95E1F7A0960FB6F894DEBF2B
S11306800FBECDBFDF91CF911F910F91FF90EF90DF
S11306900895CF93DF93FC01238130E02053310987
S11306A044E6429FB001439F700D1124248130E041
S11306B0C901C097DC01AA0FBB1F9C01220F331F85
S11306C0220F331F220F331FCD01820F931F860F7A
S11306D0971F258130E020533109820F931FA3E334
S11306E0B2E011969C938E93878190E0C097489FC7
S11306F0B001499F700D1124808590E09C01205326
S11307003109E901CC0FDD1FC901880F991F880F3A
S1130710991F880F991F9E01280F391F260F371F15
S1130720818590E0C097280F391F13963C932E9330
S11307301297838590E0C097489FB001499F700D40
S11307401124448550E09A0120533109C901880FCE
S1130750991FA901440F551F440F551F440F551FDE
S11307609C01240F351F260F371F858590E0C09705
S1130770280F391F15963C932E931497DF91CF9130
S113078008950F931F93CF93DF93CDB7DEB7E2970E
S11307900FB6F894DEBF0FBECDBF1A821982FE01D8
S11307A0339680E3DF011D928A95E9F7E3E3F2E0F3
S11307B087818F9386818F9385818F9384818F9393
S11307C083818F9382818F9381818F9380818F9393
S11307D088E291E09F938F938E010F5F1F4F1F93C9
S11307E00F930E946909C8010E9411070FB6F8947B
S11307F0DEBF0FBECDBFE2960FB6F894DEBF0FBECC
S1130800CDBFDF91CF911F910F910895882321F0DF
S11308108BB180688BB908958BB18F778BB90895AC
S1130820882321F08BB180648BB908958BB18F7BC1
S11308308BB90895882321F08BB180628BB903C0F2
S11308408BB18F7D8BB98BB18F7D8BB908958091DE
S11308503B0290913C021816190624F490933A0234
S113086080933902E3E3F2E0268137818281938128
S113087044972817390760F01092AB0180E00E947A
S1130880060481E00E94100480E00E941A04089586
S113089080913702909138028217930720F4809157
S11308A0AB01882361F081E08093AB010E940604D0
S11308B080E00E94100481E00E941A0408951092BE
S11308C0AB0180E00E94060481E00E94100480E0F5
S11308D00E941A040895CF93DF93CDB7DEB7C355B2
S11308E0D1090FB6F894DEBF0FBECDBF80E290E011
S11308F09A838983FE0133968FE1DF011D928A95E5
S1130900E9F71092800081EC8093810080E280936B
S11309106F0084EE8AB98CE00E94B2018AE391E010
S11309200E94A301BFEF29E688E1B1502040804036
S1130930E1F700C000000E947B0188E591E00E947D
S1130940A3019FEFA9E6B8E19150A040B040E1F7C0
S113095000C000000E947B0183E392E00E942D0509
S113096040E060E875E280E090E00E94D706789469
S113097085E791E00E9411071BA21AA2FE01B4961A
S113098080E3DF011D928A95E9F78BB184608BB90E
S11309908FE39CE90197F1F700C000008BB18B7FD6
S11309A08BB90E9427040E942A07892B09F441C0AD
S11309B0CE0182960E944F0742E050E06AE871E05F
S11309C0CE0182960E945B09892B69F4CE0182963E
S11309D00E94490383E392E00E9489058DE891E037
S11309E00E94110726C042E050E063E971E0CE01A5
S11309F082960E945B09892B19F40E94C10319C0D5
S1130A0042E050E066E971E0CE0182960E945B0903
S1130A10892B59F49091AB0181E089278093AB0134
S1130A2089E991E00E94110704C08FE991E00E94D6
S1130A301107CE0101960E9472020E947B01CE0131
S1130A4001960E94A3019FEFA9E6B8E19150A0404E
S1130A50B040E1F700C000008FCFCF92DF92EF9259
S1130A60FF920F931F93CF93DF937C0180E390E079
S1130A700E941C0CC82FD0E0DC2FCC2781E390E02F
S1130A800E941C0CC82BF701D383C28382E390E03D
S1130A900E941C0C90E0182F002783E390E00E9432
S1130AA01C0C9801282BC9016C01F70195838483E0
S1130AB084E390E00E941C0C90E0182F002785E34B
S1130AC090E00E941C0C9801282BC901F701918326
S1130AD08083219629F48AEF90E0F701938382833F
S1130AE0CD20C09429F484EB90E0F70195838483AE
S1130AF02F3F3F4F29F484E690E0F70191838083F0
S1130B00DF91CF911F910F91FF90EF90DF90CF90E5
S1130B100895CF93DF93EC016B8180E390E00E9412
S1130B20240C6A8181E390E00E94240C6D8182E3AD
S1130B3090E00E94240C6C8183E390E00E94240CDA
S1130B40698184E390E00E94240C688185E390E04D
S1130B500E94240CDF91CF9108950E94400685E302
S1130B608A95F1F7000080E006C0E82FF0E0EE5C23
S1130B70FD4F10828F5F8823C1F30895CF938111B5
S1130B8011C0C62FE82FF0E0EE5CFD4F6083895D55
S1130B90880F0E9446068C2F0E9474060E946C06E1
S1130BA080E001C08FEFCF910895CF93DF9381113F
S1130BB02BC0683058F5282F30E0F901EE5CFD4F6A
S1130BC09081442349F0C1E0D0E002C0CC0FDD1F86
S1130BD06A95E2F7C92B09C0C1E0D0E002C0CC0F8E
S1130BE0DD1F6A95E2F7C095C923F901EE5CFD4F5C
S1130BF0C083895D880F0E9446068C2F0E9474066C
S1130C000E946C0680E003C08FEF01C08FEFDF917C
S1130C10CF91089541E00E94D505089540E00E94D7
S1130C20D5050895CF9381110EC090E08796880F63
S1130C30991F81600E9446060E948606C82FC095AF
S1130C400E946C0601C0CFEF8C2FCF910895CF93F3
S1130C50811111C0683088F4C62F0E9412068F3F9C
S1130C6069F0082E000C990B02C095958795CA95DA
S1130C70E2F7817003C08FEF01C08FEFCF91089529
S1130C801092B90088E18093B800089594EA909393
S1130C90BC009091BC009923E4F79091B900987F2F
S1130CA0983011F0903191F48093BB0084E88093E4
S1130CB0BC008091BC008823E4F78091B900887F50
S1130CC0883131F0803431F480E0089581E0089572
S1130CD080E0089581E0089584E98093BC008091C8
S1130CE0BC0084FDFCCF08958093BB0084E880930E
S1130CF0BC008091BC008823E4F78091B900887F10
S1130D00883211F081E0089580E0089584E88093AA
S1130D10BC008091BC008823E4F78091BB00089557
S1130D201F920F920FB60F9211248F939F93EF93FC
S1130D30FF93E091AE01F091AF018091C600EE54B3
S1130D40FE4F80838091B0019091B1010196909300
S1130D50B1018093B0018091AE019091AF010196F1
S1130D609093AF018093AE018091AE019091AF0159
S1130D708038910520F01092AF011092AE01FF91DE
S1130D80EF919F918F910F900FBE0F901F90189528
S1130D901F920F920FB60F9211248F9381E08093CC
S1130DA000018F910F900FBE0F901F901895442350
S1130DB039F0E0ECF0E0208122602083A8E001C05B
S1130DC0A0E1B0E09B01AC010E9449099B01AC0188
S1130DD060E074E284EF90E00E941809BA01A9016E
S1130DE04150510961097109DB01CA0188279F70CB
S1130DF0AA27BB27892F9A2FAB2FBB278093C50027
S1130E004093C400E1ECF0E08081886D8083089514
S1130E10909100019923E1F3109200018093C600A0
S1130E2008950F931F93CF93DF938C01C0E0D0E01C
S1130E30F801EC0FFD1F80810E9408072196F8013C
S1130E40EC0FFD1F80818111F3CFDF91CF911F91B2
S1130E500F9108958091B0019091B101089520916E
S1130E60AC013091AD01F901EE54FE4F80812F5F4A
S1130E703F4F3093AD012093AC014091B0015091AC
S1130E80B101415051095093B1014093B001203850
S1130E90310520F01092AD011092AC010895EF924B
S1130EA0FF920F931F93CF93DF937C01C0E0D0E0B8
S1130EB011C087010C0F1D1F0E942F07F8018083AA
S1130EC02196FFEF21EE84E0F15020408040E1F7CD
S1130ED000C000000E942A07892B59F7DF91CF91A7
S1130EE01F910F91FF90EF9008950E9489070C9431
S1130EF071080E946A0858F00E94630840F029F4BF
S1130F005F3F29F00C945A0851110C94A5080C94D5
S1130F1060080E94820868F39923B1F3552391F382
S1130F20951B550BBB27AA2762177307840738F054
S1130F309F5F5F4F220F331F441FAA1FA9F335D0B1
S1130F400E2E3AF0E0E832D091505040E695001C65
S1130F50CAF72BD0FE2F29D0660F771F881FBB1F1F
S1130F60261737074807AB07B0E809F0BB0B802DFD
S1130F70BF01FF2793585F4F3AF09E3F510578F029
S1130F800C945A080C94A5085F3FE4F3983ED4F3FC
S1130F90869577956795B795F7959F5FC9F7880FFD
S1130FA0911D9695879597F90895E1E0660F771F4F
S1130FB0881FBB1F621773078407BA0720F0621BE0
S1130FC0730B840BBA0BEE1F88F7E09508950E940B
S1130FD0EE076894B1110C94A50808950E948A083C
S1130FE088F09F5798F0B92F9927B751B0F0E1F0E6
S1130FF0660F771F881F991F1AF0BA95C9F714C096
S1131000B13091F00E94A408B1E008950C94A408B2
S1131010672F782F8827B85F39F0B93FCCF38695CE
S113102077956795B395D9F73EF49095809570952B
S113103061957F4F8F4F9F4F0895E89409C097FBA8
S11310403EF490958095709561957F4F8F4F9F4F9B
S11310509923A9F0F92F96E9BB279395F6958795DF
S113106077956795B795F111F8CFFAF4BB0F11F4A2
S113107060FF1BC06F5F7F4F8F4F9F4F16C0882349
S113108011F096E911C0772321F09EE8872F762F7F
S113109005C0662371F096E8862F70E060E02AF0C0
S11310A09A95660F771F881FDAF7880F96958795AC
S11310B097F9089597F99F6780E870E060E00895D4
S11310C09FEF80EC089500240A941616170618065C
S11310D00906089500240A94121613061406050638
S11310E00895092E0394000C11F4882352F0BB0FC9
S11310F040F4BF2B11F460FF04C06F5F7F4F8F4F2C
S11311009F4F089557FD9058440F551F59F05F3F66
S113111071F04795880F97FB991F61F09F3F79F015
S113112087950895121613061406551FF2CF469597
S1131130F1DF08C0161617061806991FF1CF869519
S11311407105610508940895E894BB2766277727FD
S1131150CB0197F908950E94BE080C9471080E946F
S1131160630838F00E946A0820F0952311F00C946B
S11311705A080C94600811240C94A5080E94820853
S113118070F3959FC1F3950F50E0551F629FF001D6
S1131190729FBB27F00DB11D639FAA27F00DB11DEF
S11311A0AA1F649F6627B00DA11D661F829F222778
S11311B0B00DA11D621F739FB00DA11D621F839FFF
S11311C0A00D611D221F749F3327A00D611D231FD5
S11311D0849F600D211D822F762F6A2F11249F5723
S11311E050409AF0F1F088234AF0EE0FFF1FBB1F26
S11311F0661F771F881F91505040A9F79E3F5105E5
S113120080F00C945A080C94A5085F3FE4F3983ED0
S1131210D4F3869577956795B795F795E7959F5F8E
S1131220C1F7FE2B880F911D9695879597F9089520
S1131230A1E21A2EAA1BBB1BFD010DC0AA1FBB1FD6
S1131240EE1FFF1FA217B307E407F50720F0A21B48
S1131250B30BE40BF50B661F771F881F991F1A94B5
S113126069F760957095809590959B01AC01BD01DF
S1131270CF010895A29FB001B39FC001A39F700D39
S1131280811D1124911DB29F700D811D1124911D8A
S113129008950E943A09A59F900DB49F900DA49FB4
S11312A0800D911D11240895FB01DC0101900D9224
S11312B00020E1F70895FB01DC014150504030F07B
S11312C08D910190801919F40020B9F7881B990BAE
S11312D00895AEE0B0E0EFE6F9E00C94400C0D891F
S11312E01E8986E08C831A8309838FEF9FE79E8390
S11312F08D83AE01475E5F4F6F89788DCE01019675
S11313000E948B09EF81F885E00FF11F10822E9661
S1131310E4E00C945C0CABE0B0E0E1E9F9E00C949F
S1131320320C6C017B018A01FC01178216828381D5
S113133081FFCCC1CE0101963C01F6019381F701F6
S113134093FD859193FF81917F01882309F4BAC1AC
S1131350853239F493FD859193FF81917F01853224
S113136029F4B60190E00E94820BE7CF912C212C46
S1131370312CFFE1F315D8F08B3279F038F4803258
S113138079F08332A1F4232D20611DC08D3261F0E8
S1131390803369F4232D216016C0832D8260382E9A
S11313A0E32DE4603E2E2AC0F32DF8601DC037FC07
S11313B02DC020ED280F2A3040F08E32B9F436FCCF
S11313C081C1232D2064322E19C036FE06C08AE066
S11313D0989E200D1124922E11C0EAE02E9E200D1D
S11313E01124222EF32DF0623F2E08C08C3621F4F6
S11313F0832D8068382E02C0883641F4F70193FDAE
S1131400859193FF81917F018111B3CF982F9F7DA7
S11314109554933028F40C5F1F4F9FE399830DC0BC
S1131420833631F0833771F0833509F059C021C018
S1131430F801808189830E5F1F4F88248394912C47
S1131440530113C02801F2E04F0E511CF801A08093
S1131450B18036FE03C0692D70E002C06FEF7FEFEC
S1131460C5010E94770B4C018201F32DFF773F2EBB
S113147016C0280122E0420E511CF801A080B18060
S113148036FE03C0692D70E002C06FEF7FEFC50127
S11314900E946C0B4C01F32DF0683F2E820133FC4B
S11314A01BC0822D90E088169906B0F4B60180E244
S11314B090E00E94820B2A94F4CFF50137FC8591C9
S11314C037FE81915F01B60190E00E94820B2110EA
S11314D02A9421E0821A91088114910471F7E8C0DA
S11314E0843611F0893641F5F80137FE07C0608172
S11314F07181828193810C5F1F4F08C0608171816B
S1131500072E000C880B990B0E5F1F4FF32DFF76EF
S11315103F2E97FF09C090958095709561957F4FF8
S11315208F4F9F4FF0683F2E2AE030E0A3010E94C6
S1131530BE0B882E861845C0853731F4232D2F7EA7
S1131540B22E2AE030E025C0932D997FB92E8F3634
S1131550C1F018F4883579F0B5C0803719F08837B0
S113156021F0B0C0E92FE061BE2EB4FE0DC0FB2D0A
S1131570F460BF2E09C034FE0AC0292F2660B22EA3
S113158006C028E030E005C020E130E002C020E1E0
S113159032E0F801B7FE07C06081718182819381D6
S11315A00C5F1F4F06C06081718180E090E00E5F88
S11315B01F4FA3010E94BE0B882E8618FB2DFF77B8
S11315C03F2E36FE0DC0232D2E7FA22E891458F4F3
S11315D034FE0BC032FC09C0832D8E7EA82E05C0BC
S11315E0B82CA32C03C0B82C01C0B92CA4FE0FC086
S11315F0FE01E80DF11D8081803321F49A2D997E3E
S1131600A92E09C0A2FE06C0B394B39404C08A2DC7
S1131610867809F0B394A3FC11C0A0FE06C0B214EE
S113162088F4280C922C9B180EC0B21460F4B601F6
S113163080E290E00E94820BB394F7CFB21418F4C6
S11316402B1802C0982C212CA4FE10C0B60180E3F4
S113165090E00E94820BA2FE17C0A1FC03C088E7A1
S113166090E002C088E590E0B6010CC08A2D86782F
S113167059F0A1FE02C08BE201C080E2A7FC8DE21A
S1131680B60190E00E94820B891438F4B60180E31D
S113169090E00E94820B9A94F7CF8A94F301E80DAC
S11316A0F11D8081B60190E00E94820B8110F5CF7C
S11316B0222009F442CEB60180E290E00E94820B1F
S11316C02A94F6CFF6018681978102C08FEF9FEFAF
S11316D02B96E2E10C944E0CFC0105906150704095
S11316E00110D8F7809590958E0F9F1F0895FC01E7
S11316F06150704001900110D8F7809590958E0F3D
S11317009F1F08950F931F93CF93DF93FB012381B2
S113171021FD03C08FEF9FEF2CC022FF16C046812E
S11317205781248135814217530744F4A081B18144
S11317309D012F5F3F4F318320838C932681378116
S11317402F5F3F4F3783268314C08B01EC01FB01CD
S11317500084F185E02D0995892BE1F6D8011696D0
S11317608D919C911797019617969C938E9316973B
S1131770CE01DF91CF911F910F910895FA01AA270D
S1131780283051F1203181F1E8946F936E7F6E5FC0
S11317907F4F8F4F9F4FAF4FB1E03ED0B4E03CD06E
S11317A0670F781F891F9A1FA11D680F791F8A1F51
S11317B0911DA11D6A0F711D811D911DA11D20D0B8
S11317C009F468943F912AE0269F11243019305D72
S11317D03193DEF6CF010895462F4770405D419363
S11317E0B3E00FD0C9F7F6CF462F4F70405D4A33B0
S11317F018F0495D31FD4052419302D0A9F7EACF78
S1131800B4E0A6959795879577956795BA95C9F7A6
S113181000976105710508959B01AC010A2E069499
S11318205795479537952795BA95C9F7620F731F52
S1131830841F951FA01D0895F999FECF92BD81BD07
S1131840F89A992780B50895262FF999FECF1FBAE3
S113185092BD81BD20BD0FB6F894FA9AF99A0FBED5
S1131860019608952F923F924F925F926F927F92CA
S11318708F929F92AF92BF92CF92DF92EF92FF929C
S11318800F931F93CF93DF93CDB7DEB7CA1BDB0B48
S11318900FB6F894DEBF0FBECDBF09942A883988ED
S11318A048885F846E847D848C849B84AA84B984F4
S11318B0C884DF80EE80FD800C811B81AA81B98100
S11318C0CE0FD11D0FB6F894DEBF0FBECDBFED0114
S10918D00895F894FFCF17
S11318D6014D783A25642E25640D4D6E3A25642E05
S11318E625640A41746C3A25642E25640D00204F44
S11318F64E2000204F4646006C722C25642C25642D
S11319062C25642C25642C0D0A00202020496E69A0
S11319166369616E646F20202020202045717569FB
S113192670616D656E746F0020204C61623A536974
S11319367374656D617320202020456D6261726346
S113194661646F7300496E696369616E646F2042F6
S11319566C7565746F6F74680A0065760065766FDA
S11319666B0A006C720062620062626F6B0A006549
S109197672726F720A0098
S9030000FC
