:100000000C9434000C9451000C9451000C94510049
:100010000C9451000C9451000C9451000C9451001C
:100020000C9451000C9451000C9451000C9451000C
:100030000C9451000C9451000C9451000C945100FC
:100040000C9451000C9451000C9451000C945100EC
:100050000C9451000C9451000C9451000C945100DC
:100060000C9451000C94510011241FBECFEFD8E026
:10007000DEBFCDBF11E0A0E0B1E0EEE9F4E002C0E8
:1000800005900D92A633B107D9F721E0A6E3B1E0C0
:1000900001C01D92A134B207E1F70E9443010C9404
:1000A0004D020C940000882311F05F9A08955F9828
:1000B0000895882311F05E9A08955E980895882324
:1000C00011F05D9A08955D980895CF92DF92EF92B6
:1000D000FF920E94C5006B017C0160913901709113
:1000E0003A016250710980E090E00E94B8019B01E2
:1000F000AC01C701B6010E94190287FD03C010922E
:10010000360125C00E94C5006B017C0160913B0156
:1001100070913C0180E090E00E94B8019B01AC012D
:10012000C701B6010E94B30187FD04C0809136016A
:10013000882369F081E0809336015F9A80E00E9415
:1001400059005D9AFF90EF90DF90CF90089580E086
:100150000E9453005E9A80E0FF90EF90DF90CF9076
:100160000C945F0081E090E09093400180933F0108
:1001700008958BB11BB82FEF83ED90E321508040A1
:100180009040E1F700C00000089560E070E080E575
:1001900091E408958BB1809588708BB92FEF83ED32
:1001A00090E3215080409040E1F700C000000895A6
:1001B00081E0089562E371E0082E000C990B0C9425
:1001C0001E020F931F93CF938C0180E390E00E9457
:1001D0003702C82F81E390E00E9437022C2F30E0D5
:1001E000322F2227282BF8013383228382E390E0E9
:1001F0000E943702C82F83E390E00E9437022C2F21
:1002000030E0322F2227282BF8013583248384E322
:1002100090E00E943702C82F85E390E00E943702E9
:100220002C2F30E0322F2227282BF8013183208316
:1002300084E690E093838283CF911F910F9108957C
:10024000CF93DF93EC016B8180E390E00E943F024B
:100250006A8181E390E00E943F026D8182E390E039
:100260000E943F026C8183E390E00E943F0269811B
:1002700084E390E00E943F02688185E390E0DF9193
:10028000CF910C943F02CF93DF93CDB7DEB7E297C7
:100290000FB6F894DEBF0FBECDBF80EE8AB987E3FC
:1002A00091E00E94E1000E94CA000E94B90080E330
:1002B000782E7E0123E0E20EF11C90E0C92E91E041
:1002C000D92E28E1A22E21E0B22E8E010F5F1F4F02
:1002D000662463943DE2832E31E0932E1A821982C4
:1002E000F701272D11922A95E9F78C2D0E94B20073
:1002F0008A2D0E94B2000E94D800811103C00E9482
:10030000650027C0802F0E94DA0042E050E067E2DB
:1003100071E0C8010E942902892B21F487E391E052
:100320000E94200142E050E06AE271E0C8010E94B0
:100330002902892B19F4882D0E94B20042E050E076
:1003400062E371E0C8010E942902892B11F46092D6
:1003500036018FEF99E6E8E181509040E040E1F707
:1003600000C00000BBCF0E94F50108F481E00895B1
:10037000E89409C097FB3EF490958095709561953F
:100380007F4F8F4F9F4F9923A9F0F92F96E9BB27F5
:100390009395F695879577956795B795F111F8CF71
:1003A000FAF4BB0F11F460FF1BC06F5F7F4F8F4FDC
:1003B0009F4F16C0882311F096E911C0772321F0D2
:1003C0009EE8872F762F05C0662371F096E8862F6A
:1003D00070E060E02AF09A95660F771F881FDAF7C1
:1003E000880F9695879597F90895990F0008550FEE
:1003F000AA0BE0E8FEEF16161706E807F907C0F0AB
:1004000012161306E407F50798F0621B730B840BB2
:10041000950B39F40A2661F0232B242B252B21F48C
:1004200008950A2609F4A140A6958FEF811D811D2C
:1004300008950E94F50108F48FEF0895FB01DC0197
:100440000D900020E9F7119701900D920020E1F73F
:100450000895FB01DC014150504030F08D91019036
:10046000801919F40020B9F7881B990B0895F999A0
:10047000FECF92BD81BDF89A992780B50895262FA9
:10048000F999FECF1FBA92BD81BD20BD0FB6F89479
:0E049000FA9AF99A0FBE01960895F894FFCFDC
:10049E004D61783A20313820636D20204D696E3AD7
:1004AE0020313420636D2000416C747572613A20E6
:1004BE00313520636D20004556004C520054554492
:0604CE004F004242000055
:00000001FF
