:100000000C9434000C943E000C943E000C943E0082
:100010000C943E000C943E000C943E000C943E0068
:100020000C943E000C943E000C943E000C943E0058
:100030000C943E000C943E000C943E000C943E0048
:100040000C943E000C943E000C943E000C943E0038
:100050000C943E000C943E000C943E000C943E0028
:100060000C943E000C943E0011241FBECFEFD8E04C
:10007000DEBFCDBF0E946A000C946F000C9400009C
:1000800095B181E0892785B92FEF89E698E1215064
:1000900080409040E1F700C00000089595B181E0F4
:1000A000892785B92FEF89E698E12150804090405B
:1000B000E1F700C0000008958BB1809587708BB97F
:1000C0002FEF89E698E1215080409040E1F700C091
:1000D0000000089587E08AB90E945C00FDCFF89483
:0200E000FFCF50
:00000001FF
